:020000000828CE
:02000800482886
:10001000831603178601890180308100081440305F
:1000200087000317831289018316031396019D012C
:1000300000308700FF30850000309F0097011930A5
:1000400099009A01A6309800831203138701860154
:10005000950190309800831603138C148C16FF3092
:100060009200831203132630920041309F008C01CE
:100070000C13C0308B0083120313A3143230A5007D
:10008000412883120313A3185A20A3199920412849
:1000900083120313A0000308A1008C1A66208C1899
:1000A000552021088300200809007F2083120313B4
:1000B0008C10080003138316981C5C28831203130A
:1000C0002708990083120313A31008001A08A2003E
:1000D000692824302206031D73286E282208A700F1
:1000E0002314A314B32821302206031D7928A31555
:1000F000B3287A28831203132208A500B328831299
:1001000003132508A80006140000000000000000EA
:10011000000000000000A80B84280610B328220865
:10012000A7002310A314B3282330A7002310A3147F
:10013000B328123003138316981C9A2803138312D2
:10014000990003138316981CA128343003138316D7
:10015000981CA62803138312990003138316981C76
:08016000AD28A31108000800FE
:04400E00F120FF3F5F
:00000001FF
