:020000000828CE
:020008003E2890
:1000100083160317860189018030810040308700F4
:100020000317831289018316031396019D0187012B
:100030009F019701193099009A01A6309800831208
:1000400003138701860195019030980083160313EE
:100050008C148C16FF30920083120313263092000A
:100060008C01C0308B00831203135530A700A314FA
:10007000392883120313A31847203928A000030846
:10008000A1008C1A53202108830020080900831244
:1000900003132708990003138316981C4D28831215
:1000A0000313A31008001A08A200562824302206C1
:1000B000031D60285B282208A7002314A3146D28C1
:1000C0002318632868282208A7002310A3146D288A
:0E00D0002330A7002310A3146D288C12080003
:04400E00F120FF3F5F
:00000001FF
