:020000000828CE
:0200080043288B
:100010008316031786018901803081000030880033
:10002000403087000317831289018316031396015A
:100030009D01003087009F019701193099009A01B6
:10004000A630980083120313870186019501903032
:100050009800831603138C148C16FF3092008312C1
:100060000313263092008C01C0308B0083120313DF
:10007000A3148D30A5003C28831203138B13A318FF
:1000800055208B173C2883120313A0000308A100FE
:100090008C1A61208C185020210883002008090048
:1000A0007620831203138C10080003138316981C08
:1000B0005728831203132708990083120313A310F0
:1000C00008001A08A200642824302206031D6E28A6
:1000D00069282208A7002314A3148E282318712846
:1000E0008928831203133230A5008E28831203134C
:1000F00006140000000000000000000000000000E6
:10010000A50B792806108E282208A7002310A31417
:0E0110008E282330A7002310A3148E28080089
:04400E00F120FF3F5F
:00000001FF
