:020000000828CE
:0200080043288B
:100010008316031786018901803081000030880033
:10002000403087000317831289018316031396015A
:100030009D01003087009F019701193099009A01B6
:10004000A630980083120313870186019501903032
:100050009800831603138C148C16FF3092008312C1
:100060000313263092008C01C0308B0083120313DF
:100070005530A700A3143C28831203138B13A31835
:100080004F208B173C2883120313A0000308A10004
:100090008C1A5B202108830020088C1409000313AC
:1000A0008316981C51288312031327089900831282
:1000B0000313A31008008C101A08A2005F28243034
:1000C0002206031D692864282208A7002314A3140C
:1000D0008628231C6C2881288D30A50006147028E2
:1000E0000000000000000000000000000000A50B60
:1000F0007028A310061086282208A7002310A31436
:0E01000086282330A7002310A31486280800A9
:04400E00F120FF3F5F
:00000001FF
