:020000000828CE
:0200080043288B
:100010008316031786018901803081000030880033
:10002000403087000317831289018316031396015A
:100030009D01003087009F019701193099009A01B6
:10004000A630980083120313870186019501903032
:100050009800831603138C148C16FF3092008312C1
:100060000313263092008C01C0308B0083120313DF
:10007000A3143230A5003C28831203138B13A3185A
:1000800055208B173C2883120313A0000308A100FE
:100090008C1A61208C185020210883002008090048
:1000A0007620831203138C10080003138316981C08
:1000B0005728831203132708990083120313A310F0
:1000C00008001A08A200642824302206031D6E28A6
:1000D00069282208A7002314A31490282318712844
:1000E0008B28831203132208A50090288312031380
:1000F0002508A80006140000000000000000000011
:1001000000000000A80B7B28061090282208A700FA
:100110002310A31490282330A7002310A3149028A1
:020120000800D5
:04400E00F120FF3F5F
:00000001FF
